{
  "_format": "hh-sol-artifact-1",
  "contractName": "AgentForgeEscrow",
  "sourceName": "AgentForgeEscrow.sol",
  "abi": [
    {
      "inputs": [
        {
          "internalType": "address",
          "name": "_usdc",
          "type": "address"
        }
      ],
      "stateMutability": "nonpayable",
      "type": "constructor"
    },
    {
      "inputs": [
        {
          "internalType": "address",
          "name": "owner",
          "type": "address"
        }
      ],
      "name": "OwnableInvalidOwner",
      "type": "error"
    },
    {
      "inputs": [
        {
          "internalType": "address",
          "name": "account",
          "type": "address"
        }
      ],
      "name": "OwnableUnauthorizedAccount",
      "type": "error"
    },
    {
      "inputs": [],
      "name": "ReentrancyGuardReentrantCall",
      "type": "error"
    },
    {
      "anonymous": false,
      "inputs": [
        {
          "indexed": true,
          "internalType": "string",
          "name": "escrowId",
          "type": "string"
        },
        {
          "indexed": false,
          "internalType": "uint256",
          "name": "milestoneIndex",
          "type": "uint256"
        },
        {
          "indexed": false,
          "internalType": "address",
          "name": "receiver",
          "type": "address"
        },
        {
          "indexed": false,
          "internalType": "uint256",
          "name": "amount",
          "type": "uint256"
        }
      ],
      "name": "DisputeResolved",
      "type": "event"
    },
    {
      "anonymous": false,
      "inputs": [
        {
          "indexed": true,
          "internalType": "string",
          "name": "escrowId",
          "type": "string"
        },
        {
          "indexed": false,
          "internalType": "uint256",
          "name": "milestoneIndex",
          "type": "uint256"
        }
      ],
      "name": "DisputeStarted",
      "type": "event"
    },
    {
      "anonymous": false,
      "inputs": [
        {
          "indexed": true,
          "internalType": "string",
          "name": "escrowId",
          "type": "string"
        },
        {
          "indexed": false,
          "internalType": "string",
          "name": "title",
          "type": "string"
        },
        {
          "indexed": false,
          "internalType": "address",
          "name": "platform",
          "type": "address"
        }
      ],
      "name": "EscrowDeployed",
      "type": "event"
    },
    {
      "anonymous": false,
      "inputs": [
        {
          "indexed": true,
          "internalType": "string",
          "name": "escrowId",
          "type": "string"
        },
        {
          "indexed": false,
          "internalType": "address",
          "name": "funder",
          "type": "address"
        },
        {
          "indexed": false,
          "internalType": "uint256",
          "name": "amount",
          "type": "uint256"
        }
      ],
      "name": "EscrowFunded",
      "type": "event"
    },
    {
      "anonymous": false,
      "inputs": [
        {
          "indexed": true,
          "internalType": "string",
          "name": "escrowId",
          "type": "string"
        },
        {
          "indexed": false,
          "internalType": "uint256",
          "name": "milestoneIndex",
          "type": "uint256"
        },
        {
          "indexed": false,
          "internalType": "address",
          "name": "approver",
          "type": "address"
        }
      ],
      "name": "MilestoneApproved",
      "type": "event"
    },
    {
      "anonymous": false,
      "inputs": [
        {
          "indexed": true,
          "internalType": "string",
          "name": "escrowId",
          "type": "string"
        },
        {
          "indexed": false,
          "internalType": "uint256",
          "name": "milestoneIndex",
          "type": "uint256"
        },
        {
          "indexed": false,
          "internalType": "string",
          "name": "evidence",
          "type": "string"
        }
      ],
      "name": "MilestoneMarked",
      "type": "event"
    },
    {
      "anonymous": false,
      "inputs": [
        {
          "indexed": true,
          "internalType": "string",
          "name": "escrowId",
          "type": "string"
        },
        {
          "indexed": false,
          "internalType": "uint256",
          "name": "milestoneIndex",
          "type": "uint256"
        },
        {
          "indexed": false,
          "internalType": "address",
          "name": "receiver",
          "type": "address"
        },
        {
          "indexed": false,
          "internalType": "uint256",
          "name": "amount",
          "type": "uint256"
        }
      ],
      "name": "MilestoneReleased",
      "type": "event"
    },
    {
      "anonymous": false,
      "inputs": [
        {
          "indexed": true,
          "internalType": "address",
          "name": "previousOwner",
          "type": "address"
        },
        {
          "indexed": true,
          "internalType": "address",
          "name": "newOwner",
          "type": "address"
        }
      ],
      "name": "OwnershipTransferred",
      "type": "event"
    },
    {
      "inputs": [
        {
          "internalType": "string",
          "name": "escrowId",
          "type": "string"
        },
        {
          "internalType": "uint256",
          "name": "milestoneIndex",
          "type": "uint256"
        }
      ],
      "name": "approveMilestone",
      "outputs": [],
      "stateMutability": "nonpayable",
      "type": "function"
    },
    {
      "inputs": [
        {
          "internalType": "string",
          "name": "escrowId",
          "type": "string"
        },
        {
          "internalType": "string",
          "name": "title",
          "type": "string"
        },
        {
          "internalType": "string",
          "name": "description",
          "type": "string"
        },
        {
          "internalType": "address",
          "name": "platform",
          "type": "address"
        },
        {
          "internalType": "address",
          "name": "serviceProvider",
          "type": "address"
        },
        {
          "internalType": "address",
          "name": "approver",
          "type": "address"
        },
        {
          "internalType": "address",
          "name": "disputeResolver",
          "type": "address"
        },
        {
          "internalType": "address",
          "name": "releaseSigner",
          "type": "address"
        },
        {
          "components": [
            {
              "internalType": "string",
              "name": "description",
              "type": "string"
            },
            {
              "internalType": "uint256",
              "name": "amount",
              "type": "uint256"
            },
            {
              "internalType": "address",
              "name": "receiver",
              "type": "address"
            },
            {
              "internalType": "enum AgentForgeEscrow.MilestoneStatus",
              "name": "status",
              "type": "uint8"
            },
            {
              "internalType": "string",
              "name": "evidence",
              "type": "string"
            },
            {
              "internalType": "address",
              "name": "agentAddress",
              "type": "address"
            }
          ],
          "internalType": "struct AgentForgeEscrow.Milestone[]",
          "name": "initialMilestones",
          "type": "tuple[]"
        }
      ],
      "name": "deployEscrow",
      "outputs": [],
      "stateMutability": "nonpayable",
      "type": "function"
    },
    {
      "inputs": [
        {
          "internalType": "uint256",
          "name": "",
          "type": "uint256"
        }
      ],
      "name": "escrowIds",
      "outputs": [
        {
          "internalType": "string",
          "name": "",
          "type": "string"
        }
      ],
      "stateMutability": "view",
      "type": "function"
    },
    {
      "inputs": [
        {
          "internalType": "string",
          "name": "",
          "type": "string"
        }
      ],
      "name": "escrows",
      "outputs": [
        {
          "internalType": "string",
          "name": "title",
          "type": "string"
        },
        {
          "internalType": "string",
          "name": "description",
          "type": "string"
        },
        {
          "internalType": "address",
          "name": "platform",
          "type": "address"
        },
        {
          "internalType": "address",
          "name": "serviceProvider",
          "type": "address"
        },
        {
          "internalType": "address",
          "name": "approver",
          "type": "address"
        },
        {
          "internalType": "address",
          "name": "disputeResolver",
          "type": "address"
        },
        {
          "internalType": "address",
          "name": "releaseSigner",
          "type": "address"
        },
        {
          "internalType": "enum AgentForgeEscrow.TaskStatus",
          "name": "status",
          "type": "uint8"
        },
        {
          "internalType": "uint256",
          "name": "totalFunded",
          "type": "uint256"
        },
        {
          "internalType": "uint256",
          "name": "totalReleased",
          "type": "uint256"
        }
      ],
      "stateMutability": "view",
      "type": "function"
    },
    {
      "inputs": [
        {
          "internalType": "string",
          "name": "escrowId",
          "type": "string"
        },
        {
          "internalType": "uint256",
          "name": "amount",
          "type": "uint256"
        }
      ],
      "name": "fundEscrow",
      "outputs": [],
      "stateMutability": "nonpayable",
      "type": "function"
    },
    {
      "inputs": [
        {
          "internalType": "string",
          "name": "escrowId",
          "type": "string"
        }
      ],
      "name": "getEscrow",
      "outputs": [
        {
          "components": [
            {
              "internalType": "string",
              "name": "title",
              "type": "string"
            },
            {
              "internalType": "string",
              "name": "description",
              "type": "string"
            },
            {
              "internalType": "address",
              "name": "platform",
              "type": "address"
            },
            {
              "internalType": "address",
              "name": "serviceProvider",
              "type": "address"
            },
            {
              "internalType": "address",
              "name": "approver",
              "type": "address"
            },
            {
              "internalType": "address",
              "name": "disputeResolver",
              "type": "address"
            },
            {
              "internalType": "address",
              "name": "releaseSigner",
              "type": "address"
            },
            {
              "internalType": "enum AgentForgeEscrow.TaskStatus",
              "name": "status",
              "type": "uint8"
            },
            {
              "internalType": "uint256",
              "name": "totalFunded",
              "type": "uint256"
            },
            {
              "internalType": "uint256",
              "name": "totalReleased",
              "type": "uint256"
            },
            {
              "components": [
                {
                  "internalType": "string",
                  "name": "description",
                  "type": "string"
                },
                {
                  "internalType": "uint256",
                  "name": "amount",
                  "type": "uint256"
                },
                {
                  "internalType": "address",
                  "name": "receiver",
                  "type": "address"
                },
                {
                  "internalType": "enum AgentForgeEscrow.MilestoneStatus",
                  "name": "status",
                  "type": "uint8"
                },
                {
                  "internalType": "string",
                  "name": "evidence",
                  "type": "string"
                },
                {
                  "internalType": "address",
                  "name": "agentAddress",
                  "type": "address"
                }
              ],
              "internalType": "struct AgentForgeEscrow.Milestone[]",
              "name": "milestones",
              "type": "tuple[]"
            }
          ],
          "internalType": "struct AgentForgeEscrow.EscrowContract",
          "name": "",
          "type": "tuple"
        }
      ],
      "stateMutability": "view",
      "type": "function"
    },
    {
      "inputs": [
        {
          "internalType": "string",
          "name": "escrowId",
          "type": "string"
        },
        {
          "internalType": "uint256",
          "name": "milestoneIndex",
          "type": "uint256"
        }
      ],
      "name": "getMilestone",
      "outputs": [
        {
          "components": [
            {
              "internalType": "string",
              "name": "description",
              "type": "string"
            },
            {
              "internalType": "uint256",
              "name": "amount",
              "type": "uint256"
            },
            {
              "internalType": "address",
              "name": "receiver",
              "type": "address"
            },
            {
              "internalType": "enum AgentForgeEscrow.MilestoneStatus",
              "name": "status",
              "type": "uint8"
            },
            {
              "internalType": "string",
              "name": "evidence",
              "type": "string"
            },
            {
              "internalType": "address",
              "name": "agentAddress",
              "type": "address"
            }
          ],
          "internalType": "struct AgentForgeEscrow.Milestone",
          "name": "",
          "type": "tuple"
        }
      ],
      "stateMutability": "view",
      "type": "function"
    },
    {
      "inputs": [
        {
          "internalType": "string",
          "name": "escrowId",
          "type": "string"
        }
      ],
      "name": "getMilestoneCount",
      "outputs": [
        {
          "internalType": "uint256",
          "name": "",
          "type": "uint256"
        }
      ],
      "stateMutability": "view",
      "type": "function"
    },
    {
      "inputs": [
        {
          "internalType": "string",
          "name": "escrowId",
          "type": "string"
        }
      ],
      "name": "getTotalBalance",
      "outputs": [
        {
          "internalType": "uint256",
          "name": "",
          "type": "uint256"
        }
      ],
      "stateMutability": "view",
      "type": "function"
    },
    {
      "inputs": [
        {
          "internalType": "string",
          "name": "escrowId",
          "type": "string"
        },
        {
          "internalType": "uint256",
          "name": "milestoneIndex",
          "type": "uint256"
        },
        {
          "internalType": "string",
          "name": "evidence",
          "type": "string"
        }
      ],
      "name": "markMilestone",
      "outputs": [],
      "stateMutability": "nonpayable",
      "type": "function"
    },
    {
      "inputs": [],
      "name": "owner",
      "outputs": [
        {
          "internalType": "address",
          "name": "",
          "type": "address"
        }
      ],
      "stateMutability": "view",
      "type": "function"
    },
    {
      "inputs": [
        {
          "internalType": "string",
          "name": "escrowId",
          "type": "string"
        },
        {
          "internalType": "uint256",
          "name": "milestoneIndex",
          "type": "uint256"
        }
      ],
      "name": "releaseMilestone",
      "outputs": [],
      "stateMutability": "nonpayable",
      "type": "function"
    },
    {
      "inputs": [],
      "name": "renounceOwnership",
      "outputs": [],
      "stateMutability": "nonpayable",
      "type": "function"
    },
    {
      "inputs": [
        {
          "internalType": "string",
          "name": "escrowId",
          "type": "string"
        },
        {
          "internalType": "uint256",
          "name": "milestoneIndex",
          "type": "uint256"
        },
        {
          "internalType": "address[]",
          "name": "receivers",
          "type": "address[]"
        },
        {
          "internalType": "uint256[]",
          "name": "amounts",
          "type": "uint256[]"
        }
      ],
      "name": "resolveDispute",
      "outputs": [],
      "stateMutability": "nonpayable",
      "type": "function"
    },
    {
      "inputs": [
        {
          "internalType": "string",
          "name": "escrowId",
          "type": "string"
        },
        {
          "internalType": "uint256",
          "name": "milestoneIndex",
          "type": "uint256"
        }
      ],
      "name": "startDispute",
      "outputs": [],
      "stateMutability": "nonpayable",
      "type": "function"
    },
    {
      "inputs": [
        {
          "internalType": "address",
          "name": "newOwner",
          "type": "address"
        }
      ],
      "name": "transferOwnership",
      "outputs": [],
      "stateMutability": "nonpayable",
      "type": "function"
    },
    {
      "inputs": [],
      "name": "usdc",
      "outputs": [
        {
          "internalType": "contract IERC20",
          "name": "",
          "type": "address"
        }
      ],
      "stateMutability": "view",
      "type": "function"
    }
  ],
  "bytecode": "0x60806040523480156200001157600080fd5b5060405162002b8938038062002b89833981016040819052620000349162000101565b33806200005b57604051631e4fbdf760e01b81526000600482015260240160405180910390fd5b6200006681620000b1565b5060017f9b779b17422d0df92223018b32b4d1fa46e071723d6817e2486d003becc55f0055600180546001600160a01b0319166001600160a01b039290921691909117905562000133565b600080546001600160a01b038381166001600160a01b0319831681178455604051919092169283917f8be0079c531659141344cd1fd0a4f28419497f9722a3daafe3b4186f6b6457e09190a35050565b6000602082840312156200011457600080fd5b81516001600160a01b03811681146200012c57600080fd5b9392505050565b612a4680620001436000396000f3fe608060405234801561001057600080fd5b506004361061010b5760003560e01c8063969631d5116100a2578063d939f6f011610071578063d939f6f014610244578063da8c31f314610257578063db3c1d0b14610277578063f1d858051461028a578063f2fde38b1461029d57600080fd5b8063969631d5146101eb578063bb026f8d1461020b578063c8cd26441461021e578063cb50ef1d1461023157600080fd5b8063715018a6116100de578063715018a61461019f5780637243be50146101a7578063786f1295146101ba5780638da5cb5b146101da57600080fd5b806334b30de714610110578063370d10f4146101365780633e413bee1461014b5780635cc9f86414610176575b600080fd5b61012361011e366004611f80565b6102b0565b6040519081526020015b60405180910390f35b610149610144366004612068565b61030b565b005b60015461015e906001600160a01b031681565b6040516001600160a01b03909116815260200161012d565b610189610184366004611f80565b6106be565b60405161012d9a999897969594939291906121cf565b610149610841565b6101496101b5366004612251565b610855565b6101cd6101c8366004612296565b610af3565b60405161012d91906122af565b6000546001600160a01b031661015e565b6101fe6101f9366004611f80565b610b9f565b60405161012d919061239c565b610149610219366004612251565b610fcc565b61012361022c366004611f80565b6111d0565b61014961023f3660046124a2565b6111fb565b610149610252366004612251565b6113bb565b61026a610265366004612251565b6115f0565b60405161012d919061250f565b610149610285366004612650565b611819565b610149610298366004612251565b611bae565b6101496102ab366004612751565b611d49565b6000806002836040516102c3919061276c565b90815260405190819003602001902060028101549091506001600160a01b03166102f05750600092915050565b80600801548160070154610304919061279e565b9392505050565b8360028160405161031c919061276c565b90815260405190819003602001902060050154336001600160a01b03909116146103855760405162461bcd60e51b815260206004820152601560248201527427b7363c903234b9b83aba32903932b9b7b63b32b960591b60448201526064015b60405180910390fd5b61038d611d87565b600060028660405161039f919061276c565b908152604051908190036020019020600981015490915085106103d45760405162461bcd60e51b815260040161037c906127b1565b60008160090186815481106103eb576103eb6127d8565b60009182526020909120600590910201905060046002820154600160a01b900460ff16600581111561041f5761041f6121a5565b1461045b5760405162461bcd60e51b815260206004820152600c60248201526b139bdd08191a5cdc1d5d195960a21b604482015260640161037c565b8351855114801561046d575060008551115b6104b05760405162461bcd60e51b815260206004820152601460248201527324b73b30b634b2103234b9ba3934b13aba34b7b760611b604482015260640161037c565b60028101805460ff60a01b1916600560a01b1790556000805b8651811015610682578581815181106104e4576104e46127d8565b6020026020010151826104f791906127ee565b60015488519193506001600160a01b03169063a9059cbb90899084908110610521576105216127d8565b602002602001015188848151811061053b5761053b6127d8565b60200260200101516040518363ffffffff1660e01b81526004016105749291906001600160a01b03929092168252602082015260400190565b6020604051808303816000875af1158015610593573d6000803e3d6000fd5b505050506040513d601f19601f820116820180604052508101906105b79190612801565b6105d35760405162461bcd60e51b815260040161037c90612823565b886040516105e1919061276c565b60405180910390207f8707a1911a6d85f4fa2a4c27caea112628dbc00faceb284aca9022df2cf628678989848151811061061d5761061d6127d8565b6020026020010151898581518110610637576106376127d8565b6020026020010151604051610668939291909283526001600160a01b03919091166020830152604082015260600190565b60405180910390a28061067a8161284c565b9150506104c9565b508083600801600082825461069791906127ee565b909155505060016000805160206129f183398151915255506106b7915050565b5050505050565b80516020818301810180516002825292820191909301209152805481906106e490612865565b80601f016020809104026020016040519081016040528092919081815260200182805461071090612865565b801561075d5780601f106107325761010080835404028352916020019161075d565b820191906000526020600020905b81548152906001019060200180831161074057829003601f168201915b50505050509080600101805461077290612865565b80601f016020809104026020016040519081016040528092919081815260200182805461079e90612865565b80156107eb5780601f106107c0576101008083540402835291602001916107eb565b820191906000526020600020905b8154815290600101906020018083116107ce57829003601f168201915b5050505060028301546003840154600485015460058601546006870154600788015460089098015496976001600160a01b03958616979486169650928516949182169391811692600160a01b90910460ff16918a565b610849611da3565b6108536000611dd0565b565b81600281604051610866919061276c565b90815260405190819003602001902060060154336001600160a01b03909116146108c85760405162461bcd60e51b815260206004820152601360248201527227b7363c903932b632b0b9b29039b4b3b732b960691b604482015260640161037c565b6108d0611d87565b60006002846040516108e2919061276c565b908152604051908190036020019020600981015490915083106109175760405162461bcd60e51b815260040161037c906127b1565b600081600901848154811061092e5761092e6127d8565b600091825260209091206005909102019050600280820154600160a01b900460ff166005811115610961576109616121a5565b1461099d5760405162461bcd60e51b815260206004820152600c60248201526b139bdd08185c1c1c9bdd995960a21b604482015260640161037c565b60028101805460ff60a01b1916600360a01b17905560018101546008830180546000906109cb9084906127ee565b90915550506001805460028301549183015460405163a9059cbb60e01b81526001600160a01b039384166004820152602481019190915291169063a9059cbb906044016020604051808303816000875af1158015610a2d573d6000803e3d6000fd5b505050506040513d601f19601f82011682018060405250810190610a519190612801565b610a6d5760405162461bcd60e51b815260040161037c90612823565b84604051610a7b919061276c565b60408051918290038220600284015460018501548885526001600160a01b03909116602085015283830152905190917f46ebce8cc1a67e83f55cb16538d2c406b8b520d286fb19598b660a8b1155de1d919081900360600190a25050610aee60016000805160206129f183398151915255565b505050565b60038181548110610b0357600080fd5b906000526020600020016000915090508054610b1e90612865565b80601f0160208091040260200160405190810160405280929190818152602001828054610b4a90612865565b8015610b975780601f10610b6c57610100808354040283529160200191610b97565b820191906000526020600020905b815481529060010190602001808311610b7a57829003601f168201915b505050505081565b610bfc6040805161016081018252606080825260208201819052600092820183905281018290526080810182905260a0810182905260c081018290529060e082019081526020016000815260200160008152602001606081525090565b600282604051610c0c919061276c565b908152602001604051809103902060405180610160016040529081600082018054610c3690612865565b80601f0160208091040260200160405190810160405280929190818152602001828054610c6290612865565b8015610caf5780601f10610c8457610100808354040283529160200191610caf565b820191906000526020600020905b815481529060010190602001808311610c9257829003601f168201915b50505050508152602001600182018054610cc890612865565b80601f0160208091040260200160405190810160405280929190818152602001828054610cf490612865565b8015610d415780601f10610d1657610100808354040283529160200191610d41565b820191906000526020600020905b815481529060010190602001808311610d2457829003601f168201915b505050918352505060028201546001600160a01b03908116602083015260038084015482166040840152600484015482166060840152600584015482166080840152600684015491821660a084015260c090920191600160a01b90910460ff1690811115610db157610db16121a5565b6003811115610dc257610dc26121a5565b8152602001600782015481526020016008820154815260200160098201805480602002602001604051908101604052809291908181526020016000905b82821015610fbe57838290600052602060002090600502016040518060c0016040529081600082018054610e3290612865565b80601f0160208091040260200160405190810160405280929190818152602001828054610e5e90612865565b8015610eab5780601f10610e8057610100808354040283529160200191610eab565b820191906000526020600020905b815481529060010190602001808311610e8e57829003601f168201915b50505091835250506001820154602082015260028201546001600160a01b0381166040830152606090910190600160a01b900460ff166005811115610ef257610ef26121a5565b6005811115610f0357610f036121a5565b8152602001600382018054610f1790612865565b80601f0160208091040260200160405190810160405280929190818152602001828054610f4390612865565b8015610f905780601f10610f6557610100808354040283529160200191610f90565b820191906000526020600020905b815481529060010190602001808311610f7357829003601f168201915b5050509183525050600491909101546001600160a01b03166020918201529082526001929092019101610dff565b505050915250909392505050565b610fd4611d87565b6000600283604051610fe6919061276c565b90815260405190819003602001902060028101549091506001600160a01b03166110455760405162461bcd60e51b815260206004820152601060248201526f115cd8dc9bddc81b9bdd08199bdd5b9960821b604482015260640161037c565b60006006820154600160a01b900460ff166003811115611067576110676121a5565b146110a15760405162461bcd60e51b815260206004820152600a6024820152694e6f742061637469766560b01b604482015260640161037c565b6001546040516323b872dd60e01b8152336004820152306024820152604481018490526001600160a01b03909116906323b872dd906064016020604051808303816000875af11580156110f8573d6000803e3d6000fd5b505050506040513d601f19601f8201168201806040525081019061111c9190612801565b6111385760405162461bcd60e51b815260040161037c90612823565b8181600701600082825461114c91906127ee565b909155505060068101805460ff60a01b1916600160a01b17905560405161117490849061276c565b6040805191829003822033835260208301859052917f3aff663a8467891866b3283b873f5e8f912954bdef39fc195f1f9c3870c504c2910160405180910390a2506111cc60016000805160206129f183398151915255565b5050565b60006002826040516111e2919061276c565b9081526040519081900360200190206009015492915050565b8260028160405161120c919061276c565b90815260405190819003602001902060030154336001600160a01b03909116146112705760405162461bcd60e51b815260206004820152601560248201527427b7363c9039b2b93b34b1b290383937bb34b232b960591b604482015260640161037c565b6000600285604051611282919061276c565b908152604051908190036020019020600981015490915084106112b75760405162461bcd60e51b815260040161037c906127b1565b60008160090185815481106112ce576112ce6127d8565b60009182526020822060059091020191506002820154600160a01b900460ff1660058111156112ff576112ff6121a5565b146113405760405162461bcd60e51b8152602060048201526011602482015270105b1c9958591e4818dbdb5c1b195d1959607a1b604482015260640161037c565b60028101805460ff60a01b1916600160a01b1790556003810161136385826128ed565b5085604051611372919061276c565b60405180910390207ffa91972f57724d3a0d28c08c47e493c89868b7e5f0ee6c4df171412a284968fd86866040516113ab9291906129ad565b60405180910390a2505050505050565b816002816040516113cc919061276c565b90815260405190819003602001902060030154336001600160a01b03909116146114305760405162461bcd60e51b815260206004820152601560248201527427b7363c9039b2b93b34b1b290383937bb34b232b960591b604482015260640161037c565b6000600284604051611442919061276c565b908152604051908190036020019020600981015490915083106114775760405162461bcd60e51b815260040161037c906127b1565b600081600901848154811061148e5761148e6127d8565b60009182526020909120600590910201905060016002820154600160a01b900460ff1660058111156114c2576114c26121a5565b14806114ec5750600280820154600160a01b900460ff1660058111156114ea576114ea6121a5565b145b6115295760405162461bcd60e51b815260206004820152600e60248201526d43616e6e6f74206469737075746560901b604482015260640161037c565b60056002820154600160a01b900460ff16600581111561154b5761154b6121a5565b0361158b5760405162461bcd60e51b815260206004820152601060248201526f105b1c9958591e481c995cdbdb1d995960821b604482015260640161037c565b60028101805460ff60a01b1916600160a21b1790556040516115ae90869061276c565b604051908190038120858252907fb9b2b6773e0014ba4c9da9c3b656f879845e7e3a21024bcadee0579d247fbc82906020015b60405180910390a25050505050565b6115f8611e50565b600283604051611608919061276c565b9081526040519081900360200190206009015482106116395760405162461bcd60e51b815260040161037c906127b1565b600283604051611649919061276c565b9081526020016040518091039020600901828154811061166b5761166b6127d8565b90600052602060002090600502016040518060c001604052908160008201805461169490612865565b80601f01602080910402602001604051908101604052809291908181526020018280546116c090612865565b801561170d5780601f106116e25761010080835404028352916020019161170d565b820191906000526020600020905b8154815290600101906020018083116116f057829003601f168201915b50505091835250506001820154602082015260028201546001600160a01b0381166040830152606090910190600160a01b900460ff166005811115611754576117546121a5565b6005811115611765576117656121a5565b815260200160038201805461177990612865565b80601f01602080910402602001604051908101604052809291908181526020018280546117a590612865565b80156117f25780601f106117c7576101008083540402835291602001916117f2565b820191906000526020600020905b8154815290600101906020018083116117d557829003601f168201915b5050509183525050600491909101546001600160a01b031660209091015290505b92915050565b60006001600160a01b031660028a604051611834919061276c565b908152604051908190036020019020600201546001600160a01b0316146118955760405162461bcd60e51b8152602060048201526015602482015274457363726f7720616c72656164792065786973747360581b604482015260640161037c565b60008151116118df5760405162461bcd60e51b81526020600482015260166024820152754174206c65617374206f6e65206d696c6573746f6e6560501b604482015260640161037c565b600060028a6040516118f1919061276c565b90815260405190819003602001902090508061190d8a826128ed565b506001810161191c89826128ed565b506002810180546001600160a01b038981166001600160a01b03199283161790925560038301805489841690831617905560048301805488841690831617905560058301805487841692169190911790556006820180546001600160a81b03191691851691909117905560005b8251811015611b1557816009016040518060c001604052808584815181106119b3576119b36127d8565b60200260200101516000015181526020018584815181106119d6576119d66127d8565b60200260200101516020015181526020018584815181106119f9576119f96127d8565b6020026020010151604001516001600160a01b0316815260200160006005811115611a2657611a266121a5565b8152604080516020818101835260008083528185019290925291909201829052835460018101855593825290208151919260050201908190611a6890826128ed565b506020820151600182015560408201516002820180546001600160a01b039092166001600160a01b03198316811782556060850151926001600160a81b03191617600160a01b836005811115611ac057611ac06121a5565b021790555060808201516003820190611ad990826128ed565b5060a09190910151600490910180546001600160a01b0319166001600160a01b0390921691909117905580611b0d8161284c565b915050611989565b50600380546001810182556000919091527fc2575a0e9e593c00f959f8c92f12db2869c3395a3b0502d05e2516446f71f85b01611b528b826128ed565b5089604051611b61919061276c565b60405180910390207f06273b41afd3dfeb3445c8e1b26c44c2ab37f98754b8ee35eb264a2f29cba7788a89604051611b9a9291906129c6565b60405180910390a250505050505050505050565b81600281604051611bbf919061276c565b90815260405190819003602001902060040154336001600160a01b0390911614611c1b5760405162461bcd60e51b815260206004820152600d60248201526c27b7363c9030b8383937bb32b960991b604482015260640161037c565b6000600284604051611c2d919061276c565b90815260405190819003602001902060098101549091508310611c625760405162461bcd60e51b815260040161037c906127b1565b6000816009018481548110611c7957611c796127d8565b60009182526020909120600590910201905060016002820154600160a01b900460ff166005811115611cad57611cad6121a5565b14611cea5760405162461bcd60e51b815260206004820152600d60248201526c139bdd0818dbdb5c1b195d1959609a1b604482015260640161037c565b60028101805460ff60a01b1916600160a11b179055604051611d0d90869061276c565b60408051918290038220868352336020840152917fc58a459bcbe9603effe76557cf1c42b44c7d88722d34b15981f568461bed80a191016115e1565b611d51611da3565b6001600160a01b038116611d7b57604051631e4fbdf760e01b81526000600482015260240161037c565b611d8481611dd0565b50565b611d8f611e20565b60026000805160206129f183398151915255565b6000546001600160a01b031633146108535760405163118cdaa760e01b815233600482015260240161037c565b600080546001600160a01b038381166001600160a01b0319831681178455604051919092169283917f8be0079c531659141344cd1fd0a4f28419497f9722a3daafe3b4186f6b6457e09190a35050565b6000805160206129f18339815191525460020361085357604051633ee5aeb560e01b815260040160405180910390fd5b6040518060c00160405280606081526020016000815260200160006001600160a01b0316815260200160006005811115611e8c57611e8c6121a5565b815260606020820152600060409091015290565b634e487b7160e01b600052604160045260246000fd5b60405160c0810167ffffffffffffffff81118282101715611ed957611ed9611ea0565b60405290565b604051601f8201601f1916810167ffffffffffffffff81118282101715611f0857611f08611ea0565b604052919050565b600082601f830112611f2157600080fd5b813567ffffffffffffffff811115611f3b57611f3b611ea0565b611f4e601f8201601f1916602001611edf565b818152846020838601011115611f6357600080fd5b816020850160208301376000918101602001919091529392505050565b600060208284031215611f9257600080fd5b813567ffffffffffffffff811115611fa957600080fd5b611fb584828501611f10565b949350505050565b600067ffffffffffffffff821115611fd757611fd7611ea0565b5060051b60200190565b80356001600160a01b0381168114611ff857600080fd5b919050565b600082601f83011261200e57600080fd5b8135602061202361201e83611fbd565b611edf565b82815260059290921b8401810191818101908684111561204257600080fd5b8286015b8481101561205d5780358352918301918301612046565b509695505050505050565b6000806000806080858703121561207e57600080fd5b843567ffffffffffffffff8082111561209657600080fd5b6120a288838901611f10565b9550602091508187013594506040870135818111156120c057600080fd5b8701601f810189136120d157600080fd5b80356120df61201e82611fbd565b81815260059190911b8201840190848101908b8311156120fe57600080fd5b928501925b828410156121235761211484611fe1565b82529285019290850190612103565b9650505050606087013591508082111561213c57600080fd5b5061214987828801611ffd565b91505092959194509250565b60005b83811015612170578181015183820152602001612158565b50506000910152565b60008151808452612191816020860160208601612155565b601f01601f19169290920160200192915050565b634e487b7160e01b600052602160045260246000fd5b600481106121cb576121cb6121a5565b9052565b60006101408083526121e38184018e612179565b905082810360208401526121f7818d612179565b6001600160a01b038c811660408601528b811660608601528a8116608086015289811660a0860152881660c08501529150612237905060e08301866121bb565b610100820193909352610120015298975050505050505050565b6000806040838503121561226457600080fd5b823567ffffffffffffffff81111561227b57600080fd5b61228785828601611f10565b95602094909401359450505050565b6000602082840312156122a857600080fd5b5035919050565b6020815260006103046020830184612179565b6000815160c084526122d760c0850182612179565b905060208301516020850152604083015160018060a01b038082166040870152606085015191506006821061230e5761230e6121a5565b81606087015260808501519150858303608087015261232d8383612179565b92508060a08601511660a087015250508091505092915050565b600081518084526020808501808196508360051b8101915082860160005b8581101561238f57828403895261237d8483516122c2565b98850198935090840190600101612365565b5091979650505050505050565b60208152600082516101608060208501526123bb610180850183612179565b91506020850151601f19808685030160408701526123d98483612179565b9350604087015191506123f760608701836001600160a01b03169052565b60608701516001600160a01b0381166080880152915060808701516001600160a01b03811660a0880152915060a08701516001600160a01b03811660c0880152915060c08701516001600160a01b03811660e0880152915060e08701519150610100612465818801846121bb565b87015161012087810191909152870151610140808801919091528701518685039091018387015290506124988382612347565b9695505050505050565b6000806000606084860312156124b757600080fd5b833567ffffffffffffffff808211156124cf57600080fd5b6124db87838801611f10565b94506020860135935060408601359150808211156124f857600080fd5b5061250586828701611f10565b9150509250925092565b60208152600061030460208301846122c2565b803560068110611ff857600080fd5b600082601f83011261254257600080fd5b8135602061255261201e83611fbd565b82815260059290921b8401810191818101908684111561257157600080fd5b8286015b8481101561205d57803567ffffffffffffffff808211156125965760008081fd5b9088019060c0828b03601f19018113156125b05760008081fd5b6125b8611eb6565b87840135838111156125ca5760008081fd5b6125d88d8a83880101611f10565b8252506040808501358983015260606125f2818701611fe1565b8284015260809150612605828701612522565b9083015260a0858101358581111561261d5760008081fd5b61262b8f8c838a0101611f10565b838501525061263b848701611fe1565b90830152508652505050918301918301612575565b60008060008060008060008060006101208a8c03121561266f57600080fd5b893567ffffffffffffffff8082111561268757600080fd5b6126938d838e01611f10565b9a5060208c01359150808211156126a957600080fd5b6126b58d838e01611f10565b995060408c01359150808211156126cb57600080fd5b6126d78d838e01611f10565b98506126e560608d01611fe1565b97506126f360808d01611fe1565b965061270160a08d01611fe1565b955061270f60c08d01611fe1565b945061271d60e08d01611fe1565b93506101008c013591508082111561273457600080fd5b506127418c828d01612531565b9150509295985092959850929598565b60006020828403121561276357600080fd5b61030482611fe1565b6000825161277e818460208701612155565b9190910192915050565b634e487b7160e01b600052601160045260246000fd5b8181038181111561181357611813612788565b6020808252600d908201526c092dcecc2d8d2c840d2dcc8caf609b1b604082015260600190565b634e487b7160e01b600052603260045260246000fd5b8082018082111561181357611813612788565b60006020828403121561281357600080fd5b8151801515811461030457600080fd5b6020808252600f908201526e151c985b9cd9995c8819985a5b1959608a1b604082015260600190565b60006001820161285e5761285e612788565b5060010190565b600181811c9082168061287957607f821691505b60208210810361289957634e487b7160e01b600052602260045260246000fd5b50919050565b601f821115610aee57600081815260208120601f850160051c810160208610156128c65750805b601f850160051c820191505b818110156128e5578281556001016128d2565b505050505050565b815167ffffffffffffffff81111561290757612907611ea0565b61291b816129158454612865565b8461289f565b602080601f83116001811461295057600084156129385750858301515b600019600386901b1c1916600185901b1785556128e5565b600085815260208120601f198616915b8281101561297f57888601518255948401946001909101908401612960565b508582101561299d5787850151600019600388901b60f8161c191681555b5050505050600190811b01905550565b828152604060208201526000611fb56040830184612179565b6040815260006129d96040830185612179565b905060018060a01b0383166020830152939250505056fe9b779b17422d0df92223018b32b4d1fa46e071723d6817e2486d003becc55f00a26469706673582212204210cd62afda2673798cc4d37e1f8cb57c7553dd1c2b07eed32e336b38ce4af664736f6c63430008140033",
  "linkReferences": {},
  "deployedLinkReferences": {}
}